{
	"data": {
		"bytecode": {
			"linkReferences": {},
			"object": "608060405234801561000f575f80fd5b5061026c8061001d5f395ff3fe608060405234801561000f575f80fd5b506004361061003f575f3560e01c80636fd2a95814610043578063b2fa1c9e1461005f578063c3771eb31461007d575b5f80fd5b61005d60048036038101906100589190610128565b610099565b005b6100676100a3565b604051610074919061016d565b60405180910390f35b61009760048036038101906100929190610128565b6100bf565b005b8060018190555050565b5f600354600154116100b857600190506100bc565b5f90505b90565b8060035f8282546100d091906101b3565b9250508190555060025f8154809291906100e9906101ef565b919050555050565b5f80fd5b5f819050919050565b610107816100f5565b8114610111575f80fd5b50565b5f81359050610122816100fe565b92915050565b5f6020828403121561013d5761013c6100f1565b5b5f61014a84828501610114565b91505092915050565b5f8115159050919050565b61016781610153565b82525050565b5f6020820190506101805f83018461015e565b92915050565b7f4e487b71000000000000000000000000000000000000000000000000000000005f52601160045260245ffd5b5f6101bd826100f5565b91506101c8836100f5565b92508282019050808211156101e0576101df610186565b5b92915050565b5f819050919050565b5f6101f9826101e6565b91507f7fffffffffffffffffffffffffffffffffffffffffffffffffffffffffffffff820361022b5761022a610186565b5b60018201905091905056fea2646970667358221220f5b68d9ca8c6d7235a66b3e2c4d7a418221f0e8ea147464f80b70b98a163fe1164736f6c63430008160033",
			"opcodes": "PUSH1 0x80 PUSH1 0x40 MSTORE CALLVALUE DUP1 ISZERO PUSH2 0xF JUMPI PUSH0 DUP1 REVERT JUMPDEST POP PUSH2 0x26C DUP1 PUSH2 0x1D PUSH0 CODECOPY PUSH0 RETURN INVALID PUSH1 0x80 PUSH1 0x40 MSTORE CALLVALUE DUP1 ISZERO PUSH2 0xF JUMPI PUSH0 DUP1 REVERT JUMPDEST POP PUSH1 0x4 CALLDATASIZE LT PUSH2 0x3F JUMPI PUSH0 CALLDATALOAD PUSH1 0xE0 SHR DUP1 PUSH4 0x6FD2A958 EQ PUSH2 0x43 JUMPI DUP1 PUSH4 0xB2FA1C9E EQ PUSH2 0x5F JUMPI DUP1 PUSH4 0xC3771EB3 EQ PUSH2 0x7D JUMPI JUMPDEST PUSH0 DUP1 REVERT JUMPDEST PUSH2 0x5D PUSH1 0x4 DUP1 CALLDATASIZE SUB DUP2 ADD SWAP1 PUSH2 0x58 SWAP2 SWAP1 PUSH2 0x128 JUMP JUMPDEST PUSH2 0x99 JUMP JUMPDEST STOP JUMPDEST PUSH2 0x67 PUSH2 0xA3 JUMP JUMPDEST PUSH1 0x40 MLOAD PUSH2 0x74 SWAP2 SWAP1 PUSH2 0x16D JUMP JUMPDEST PUSH1 0x40 MLOAD DUP1 SWAP2 SUB SWAP1 RETURN JUMPDEST PUSH2 0x97 PUSH1 0x4 DUP1 CALLDATASIZE SUB DUP2 ADD SWAP1 PUSH2 0x92 SWAP2 SWAP1 PUSH2 0x128 JUMP JUMPDEST PUSH2 0xBF JUMP JUMPDEST STOP JUMPDEST DUP1 PUSH1 0x1 DUP2 SWAP1 SSTORE POP POP JUMP JUMPDEST PUSH0 PUSH1 0x3 SLOAD PUSH1 0x1 SLOAD GT PUSH2 0xB8 JUMPI PUSH1 0x1 SWAP1 POP PUSH2 0xBC JUMP JUMPDEST PUSH0 SWAP1 POP JUMPDEST SWAP1 JUMP JUMPDEST DUP1 PUSH1 0x3 PUSH0 DUP3 DUP3 SLOAD PUSH2 0xD0 SWAP2 SWAP1 PUSH2 0x1B3 JUMP JUMPDEST SWAP3 POP POP DUP2 SWAP1 SSTORE POP PUSH1 0x2 PUSH0 DUP2 SLOAD DUP1 SWAP3 SWAP2 SWAP1 PUSH2 0xE9 SWAP1 PUSH2 0x1EF JUMP JUMPDEST SWAP2 SWAP1 POP SSTORE POP POP JUMP JUMPDEST PUSH0 DUP1 REVERT JUMPDEST PUSH0 DUP2 SWAP1 POP SWAP2 SWAP1 POP JUMP JUMPDEST PUSH2 0x107 DUP2 PUSH2 0xF5 JUMP JUMPDEST DUP2 EQ PUSH2 0x111 JUMPI PUSH0 DUP1 REVERT JUMPDEST POP JUMP JUMPDEST PUSH0 DUP2 CALLDATALOAD SWAP1 POP PUSH2 0x122 DUP2 PUSH2 0xFE JUMP JUMPDEST SWAP3 SWAP2 POP POP JUMP JUMPDEST PUSH0 PUSH1 0x20 DUP3 DUP5 SUB SLT ISZERO PUSH2 0x13D JUMPI PUSH2 0x13C PUSH2 0xF1 JUMP JUMPDEST JUMPDEST PUSH0 PUSH2 0x14A DUP5 DUP3 DUP6 ADD PUSH2 0x114 JUMP JUMPDEST SWAP2 POP POP SWAP3 SWAP2 POP POP JUMP JUMPDEST PUSH0 DUP2 ISZERO ISZERO SWAP1 POP SWAP2 SWAP1 POP JUMP JUMPDEST PUSH2 0x167 DUP2 PUSH2 0x153 JUMP JUMPDEST DUP3 MSTORE POP POP JUMP JUMPDEST PUSH0 PUSH1 0x20 DUP3 ADD SWAP1 POP PUSH2 0x180 PUSH0 DUP4 ADD DUP5 PUSH2 0x15E JUMP JUMPDEST SWAP3 SWAP2 POP POP JUMP JUMPDEST PUSH32 0x4E487B7100000000000000000000000000000000000000000000000000000000 PUSH0 MSTORE PUSH1 0x11 PUSH1 0x4 MSTORE PUSH1 0x24 PUSH0 REVERT JUMPDEST PUSH0 PUSH2 0x1BD DUP3 PUSH2 0xF5 JUMP JUMPDEST SWAP2 POP PUSH2 0x1C8 DUP4 PUSH2 0xF5 JUMP JUMPDEST SWAP3 POP DUP3 DUP3 ADD SWAP1 POP DUP1 DUP3 GT ISZERO PUSH2 0x1E0 JUMPI PUSH2 0x1DF PUSH2 0x186 JUMP JUMPDEST JUMPDEST SWAP3 SWAP2 POP POP JUMP JUMPDEST PUSH0 DUP2 SWAP1 POP SWAP2 SWAP1 POP JUMP JUMPDEST PUSH0 PUSH2 0x1F9 DUP3 PUSH2 0x1E6 JUMP JUMPDEST SWAP2 POP PUSH32 0x7FFFFFFFFFFFFFFFFFFFFFFFFFFFFFFFFFFFFFFFFFFFFFFFFFFFFFFFFFFFFFFF DUP3 SUB PUSH2 0x22B JUMPI PUSH2 0x22A PUSH2 0x186 JUMP JUMPDEST JUMPDEST PUSH1 0x1 DUP3 ADD SWAP1 POP SWAP2 SWAP1 POP JUMP INVALID LOG2 PUSH5 0x6970667358 0x22 SLT KECCAK256 CREATE2 0xB6 DUP14 SWAP13 0xA8 0xC6 0xD7 0x23 GAS PUSH7 0xB3E2C4D7A41822 0x1F 0xE DUP15 LOG1 SELFBALANCE CHAINID 0x4F DUP1 0xB7 SIGNEXTEND SWAP9 LOG1 PUSH4 0xFE116473 PUSH16 0x6C634300081600330000000000000000 "
		},
		"gasEstimates": {
			"creation": {
				"codeDepositCost": "124000",
				"executionCost": "169",
				"totalCost": "124169"
			},
			"external": {
				"isComplete()": "4572",
				"sendPayment(uint256)": "infinite",
				"setAmountPayable(uint256)": "22493"
			},
			"internal": {
				"getAmountPayable()": "infinite",
				"getPayCount()": "infinite"
			}
		},
		"methodIdentifiers": {
			"isComplete()": "b2fa1c9e",
			"sendPayment(uint256)": "c3771eb3",
			"setAmountPayable(uint256)": "6fd2a958"
		}
	},
	"abi": [
		{
			"inputs": [],
			"name": "isComplete",
			"outputs": [
				{
					"internalType": "bool",
					"name": "",
					"type": "bool"
				}
			],
			"stateMutability": "view",
			"type": "function"
		},
		{
			"inputs": [
				{
					"internalType": "uint256",
					"name": "_amt",
					"type": "uint256"
				}
			],
			"name": "sendPayment",
			"outputs": [],
			"stateMutability": "nonpayable",
			"type": "function"
		},
		{
			"inputs": [
				{
					"internalType": "uint256",
					"name": "_amt",
					"type": "uint256"
				}
			],
			"name": "setAmountPayable",
			"outputs": [],
			"stateMutability": "nonpayable",
			"type": "function"
		}
	]
}